:020000040000FA
:06000000F0EF00F0120019
:020006000000F8
:08000800D9CFE6FFE1CFD9FFDB
:10001000020EE126956A800E936E81AEFED7010E28
:10002000DB6ADB5007080EE3010EF36EDB5004E0E1
:10003000D890F336E806FCE1F350836E54D8010EF5
:10004000DB2AEFD7DF6A070EDF5CE7E2DE52070E3E
:10005000DD6E010EDB50000810E24CD804E0E846EB
:10006000FE0B0306FCE1836E010EDB50DF24070864
:1000700001E339D8010EDB06ECD7010EDB6ADB5059
:10008000070810E337D804E0E846FE0B0306FCE15E
:10009000836E010EDB50DF24070801E324D8010E34
:1000A000DB2AEDD7DF2ACFD7D9CFE6FFE1CFD9FFC3
:1000B000D950FD0FE96EFF0EDA20EA6E000ED880EF
:1000C000EE54000EED540BE2050EE66ED0EC00F09F
:1000D000E552FD0EDB06FE0EEBE2DB06E9D7E5524C
:1000E000E7CFD9FF1200FA0EE66EE66ADDDFE552D1
:1000F000E5521200010EDB50DF24036E010E0352A5
:020100001200EB
:0E010200060EF66E000EF76E000EF86E00018F
:100110000900F550656F0900F550666F03E16567EA
:1001200001D03DD00900F550606F0900F550616FB6
:100130000900F550626F09000900F550E96E0900E9
:10014000F550EA6E090009000900F550636F0900D7
:10015000F550646F09000900F6CF67F0F7CF68F03B
:10016000F8CF69F060C0F6FF61C0F7FF62C0F8FF2A
:100170000001635302E1645307E00900F550EE6E9D
:100180006307F8E26407F9D767C0F6FF68C0F7FFB6
:1001900069C0F8FF00016507000E665BBFD712005B
:1001A000FF0EE350026E480E01D04C0EE76EE72EB4
:1001B000FED7E76AE72EFED7022EF7D7000012001F
:1001C000000EF36E00EE00F0080E01D81200EA6097
:1001D00002D0EE6AFCD7F350E9601200EE6AFCD759
:1001E00013EE00F023EE00F0F86A019C81EC00F0C1
:0C01F000FEEC00F004EC00F0FBD7120065
:0201FC001200EF
:00000001FF
