:020000040000FA
:0600000099EF00F0120070
:020006000000F8
:08000800060EF66E000EF76E05
:10001000000EF86E00010900F550656F0900F550FB
:10002000666F03E1656701D03DD00900F550606F50
:100030000900F550616F0900F550626F0900090071
:10004000F550E96E0900F550EA6E09000900090053
:10005000F550636F0900F550646F09000900F6CF91
:1000600067F0F7CF68F0F8CF69F060C0F6FF61C0C5
:10007000F7FF62C0F8FF0001635302E1645307E039
:100080000900F550EE6E6307F8E26407F9D767C020
:10009000F6FF68C0F7FF69C0F8FF00016507000EB2
:0600A000665BBFD71200F1
:0A00A600D9CFE6FFE1CFD9FFE65203
:1000B000926A956ADF6A030EDF5C08E2806AFA0ED4
:1000C0000CD88068FA0E09D8DF2AF5D7DF6ADF502E
:1000D000DF2A836E7D0E01D8FAD7E66E72EC00F04F
:0400E000E5521200D3
:0C00E400FF0EE350036EEF0E01D0F30E90
:1000F000E76EE72E79EF00F00C0E026EE76AE72E4E
:100100007FEF00F0022E7EEF00F0032E77EF00F07D
:020110001200DB
:0E011200000EF36E00EE00F0080E01D8120091
:10012000EA6002D0EE6AFCD7F350E9601200EE6A92
:02013000FCD7FA
:0E01320013EE00F023EE00F0F86A019C04ECDE
:0E01400000F0A7EC00F053EC00F0FBD712002B
:02014E0012009D
:00000001FF
