:020000040000FA
:06000000F3EF00F0120016
:020006000000F8
:08000800D9CFE6FFE1CFD9FFDB
:100010000C0EE1263F0EDF6EDE52060EDD6E5B0E2D
:10002000F36E020EF3CFDBFF4F0EF36E030EF3CF32
:10003000DBFF660EF36E040EF3CFDBFF6D0EF36E87
:10004000050EF3CFDBFF7D0EF36E060EF3CFDBFF65
:10005000070EF36EDB6E7F0EF36E080EF3CFDBFF41
:10006000670EF36E090EF3CFDBFF936A956A0A0EF3
:10007000DB6A020EF36E0A0EDBCFF4FFF350F45C82
:1000800009E2836A816A2CD88368816829D80A0EBC
:10009000DB2AEFD70A0EDB6AF36EDBCFF4FFE85002
:1000A000F45CE5E20B0EDB6A0A0EF36E0B0EDBCF9F
:1000B000F4FFF350F45C11E2D9CF02F0DACF03F091
:1000C0000B0EDB500F0112D8816E0A0EDB500ED8DA
:1000D000836E06D80B0EDB2AE7D70A0EDB2ADCD7A5
:1000E000640EE66ECCEC00F0E5521200D924E96E05
:0A00F000000EDA20EA6EEF50120055
:0600FA00060EF66E000E7A
:10010000F76E000EF86E00010900F550656F0900EA
:10011000F550666F03E1656701D03DD00900F550E9
:10012000606F0900F550616F0900F550626F0900BA
:100130000900F550E96E0900F550EA6E0900090062
:100140000900F550636F0900F550646F090009005C
:10015000F6CF67F0F7CF68F0F8CF69F060C0F6FF30
:1001600061C0F7FF62C0F8FF0001635302E164530E
:1001700007E00900F550EE6E6307F8E26407F9D76F
:1001800067C0F6FF68C0F7FF69C0F8FF00016507A8
:08019000000E665BBFD71200F0
:08019800FF0EE350056EEF0EAF
:1001A00001D0F30EE76EE72ED3EF00F00C0E046ED5
:1001B000E76AE72ED9EF00F0042ED8EF00F0052E05
:0601C000D1EF00F0120077
:0A01C600000EF36E00EE00F0080ECC
:1001D00001D81200EA6002D0EE6AFCD7F350E96061
:0601E0001200EE6AFCD7DC
:0A01E60013EE00F023EE00F0F86ABB
:1001F000019C7DEC00F001EC01F004EC00F0FBD779
:020200001200EA
:020202001200E8
:00000001FF
